S00E0000426C696E6B792E73726563AD
S11300000C9434000C943E000C943E000C943E007E
S11300100C943E000C943E000C943E000C943E0064
S11300200C943E000C943E000C943E000C943E0054
S11300300C943E000C943E000C943E000C943E0044
S11300400C943E000C943E000C943E000C943E0034
S11300500C943E000C943E000C943E000C943E0024
S11300600C943E000C943E0011241FBECFEFD8E048
S1130070DEBFCDBF0E94DD000C94F0000C940000A4
S1130080853099F018F4823031F008958730B9F052
S11300908A30F9F008952FEF83EC99E021508040E5
S11300A09040E1F700C0000008952FEF89E698E141
S11300B0215080409040E1F700C0000008952FEFE8
S11300C08DE292E2215080409040E1F700C00000B0
S11300D008952FEF83ED90E3215080409040E1F7A5
S11300E000C0000008958FEF84B915B887B918B817
S11300F08AB91BB80895EF92FF920F931F93CF9381
S1130100DF93882361F1C62F082FD0E0EE24E39417
S113011012E06894FF24F2F8E5B88C2F0E944000A6
S113012028988C2F0E94400018B98C2F0E94400000
S113013041988C2F0E944000FBB88C2F0E944000F5
S11301405A988C2F0E94400018B98C2F0E944000AE
S113015041988C2F0E944000DF5F0D13DDCFDF91AB
S1130160CF911F910F91FF90EF900895EF92FF921E
S11301700F931F93CF93DF938823C1F0D62F182FAB
S1130180C0E0EE24E3946894FF24F1F804E0E5B8B9
S1130190F8B80BB98D2F0E944000289841985A98BE
S11301A08D2F0E944000CF5F1C13F1CFDF91CF91C0
S11301B01F910F91FF90EF9008950E94730062E0E9
S11301C083E00E947B0065E083E00E947B0062E0A4
S11301D083E00E94B60065E083E00E94B600EDCFA4
S10701E0F894FFCFBD
S9030000FC
